{
  "contractName": "ImageStorage",
  "abi": [
    {
      "constant": true,
      "inputs": [],
      "name": "viewd",
      "outputs": [
        {
          "name": "",
          "type": "uint256"
        }
      ],
      "payable": false,
      "stateMutability": "view",
      "type": "function"
    },
    {
      "constant": true,
      "inputs": [],
      "name": "owner",
      "outputs": [
        {
          "name": "",
          "type": "address"
        }
      ],
      "payable": false,
      "stateMutability": "view",
      "type": "function"
    },
    {
      "constant": true,
      "inputs": [],
      "name": "allowedViewNumber",
      "outputs": [
        {
          "name": "",
          "type": "uint256"
        }
      ],
      "payable": false,
      "stateMutability": "view",
      "type": "function"
    },
    {
      "inputs": [],
      "payable": false,
      "stateMutability": "nonpayable",
      "type": "constructor"
    },
    {
      "constant": false,
      "inputs": [
        {
          "name": "_ipfsHash",
          "type": "string"
        },
        {
          "name": "_allowedViewNumber",
          "type": "uint256"
        }
      ],
      "name": "addImage",
      "outputs": [],
      "payable": false,
      "stateMutability": "nonpayable",
      "type": "function"
    },
    {
      "constant": false,
      "inputs": [],
      "name": "getImage",
      "outputs": [
        {
          "name": "",
          "type": "string"
        }
      ],
      "payable": false,
      "stateMutability": "nonpayable",
      "type": "function"
    },
    {
      "constant": false,
      "inputs": [
        {
          "name": "_newNumber",
          "type": "uint256"
        }
      ],
      "name": "changeAllowedViewNumber",
      "outputs": [],
      "payable": false,
      "stateMutability": "nonpayable",
      "type": "function"
    }
  ],
  "bytecode": "0x608060405234801561001057600080fd5b50336000806101000a81548173ffffffffffffffffffffffffffffffffffffffff021916908373ffffffffffffffffffffffffffffffffffffffff160217905550610548806100606000396000f300608060405260043610610078576000357c0100000000000000000000000000000000000000000000000000000000900463ffffffff1680635bac6cd31461007d578063626bc6ab146100f05780638712fada1461011d5780638da5cb5b14610148578063e21833fa1461019f578063f3651cbb146101ca575b600080fd5b34801561008957600080fd5b506100ee600480360381019080803590602001908201803590602001908080601f01602080910402602001604051908101604052809392919081815260200183838082843782019150505050505091929192908035906020019092919050505061025a565b005b3480156100fc57600080fd5b5061011b60048036038101908080359060200190929190505050610284565b005b34801561012957600080fd5b506101326102f1565b6040518082815260200191505060405180910390f35b34801561015457600080fd5b5061015d6102f7565b604051808273ffffffffffffffffffffffffffffffffffffffff1673ffffffffffffffffffffffffffffffffffffffff16815260200191505060405180910390f35b3480156101ab57600080fd5b506101b461031c565b6040518082815260200191505060405180910390f35b3480156101d657600080fd5b506101df610322565b6040518080602001828103825283818151815260200191508051906020019080838360005b8381101561021f578082015181840152602081019050610204565b50505050905090810190601f16801561024c5780820380516001836020036101000a031916815260200191505b509250505060405180910390f35b8160019080519060200190610270929190610477565b508060038190555060006002819055505050565b6000809054906101000a900473ffffffffffffffffffffffffffffffffffffffff1673ffffffffffffffffffffffffffffffffffffffff163373ffffffffffffffffffffffffffffffffffffffff161415156102df57600080fd5b80600381905550600060028190555050565b60025481565b6000809054906101000a900473ffffffffffffffffffffffffffffffffffffffff1681565b60035481565b60606003546002541015156103c5576040517f08c379a000000000000000000000000000000000000000000000000000000000815260040180806020018281038252602d8152602001807f596f7520617265206e6f7420616c6c6f77656420746f2073656520746869732081526020017f696d61676520616e796d6f72650000000000000000000000000000000000000081525060400191505060405180910390fd5b60026000815480929190600101919050555060018054600181600116156101000203166002900480601f01602080910402602001604051908101604052809291908181526020018280546001816001161561010002031660029004801561046d5780601f106104425761010080835404028352916020019161046d565b820191906000526020600020905b81548152906001019060200180831161045057829003601f168201915b5050505050905090565b828054600181600116156101000203166002900490600052602060002090601f016020900481019282601f106104b857805160ff19168380011785556104e6565b828001600101855582156104e6579182015b828111156104e55782518255916020019190600101906104ca565b5b5090506104f391906104f7565b5090565b61051991905b808211156105155760008160009055506001016104fd565b5090565b905600a165627a7a723058206ef88c37f9061b2e0660afe14426009493aac58128999fb12cc4c580642b3f250029",
  "source": "pragma solidity ^0.4.24;\n\ncontract ImageStorage {\n    \n    address public owner;\n    string internal ipfsHash;\n    uint public viewd;\n    uint public allowedViewNumber;\n    \n    modifier onlyOwner() {\n        require(msg.sender == owner);\n        _;\n    }\n    \n    constructor() public {\n        owner = msg.sender;\n    }\n    \n    function addImage(string _ipfsHash, uint _allowedViewNumber) public {\n        ipfsHash = _ipfsHash;\n        allowedViewNumber = _allowedViewNumber;\n        viewd = 0;\n    }\n    \n    function getImage() public returns (string){\n        require(viewd < allowedViewNumber, \"You are not allowed to see this image anymore\");\n        viewd++;\n        return ipfsHash;\n    }\n    \n    function changeAllowedViewNumber(uint _newNumber) public onlyOwner() {\n        allowedViewNumber = _newNumber;\n        viewd = 0;\n    }\n    \n}",
  "sourcePath": "C:\\Users\\lucas\\Documents\\dev\\blockchain-challenge\\image-uploader\\contracts\\ImageStorage.sol",
  "compiler": {
    "name": "solc",
    "version": "0.4.24+commit.e67f0147.Emscripten.clang"
  },
  "schemaVersion": "2.0.1",
  "updatedAt": "2018-11-04T15:47:52.951Z"
}