{
  "contractName": "ImageContract",
  "abi": [
    {
      "inputs": [
        {
          "name": "_imageStorageAddress",
          "type": "address"
        }
      ],
      "payable": false,
      "stateMutability": "nonpayable",
      "type": "constructor"
    },
    {
      "anonymous": false,
      "inputs": [
        {
          "indexed": false,
          "name": "viewd",
          "type": "uint256"
        }
      ],
      "name": "incrementViewd",
      "type": "event"
    },
    {
      "constant": false,
      "inputs": [
        {
          "name": "_ipfsHash",
          "type": "string"
        },
        {
          "name": "_allowedViewNumber",
          "type": "uint256"
        }
      ],
      "name": "setHash",
      "outputs": [],
      "payable": false,
      "stateMutability": "nonpayable",
      "type": "function"
    },
    {
      "constant": false,
      "inputs": [],
      "name": "setViewd",
      "outputs": [],
      "payable": false,
      "stateMutability": "nonpayable",
      "type": "function"
    },
    {
      "constant": true,
      "inputs": [],
      "name": "getHash",
      "outputs": [
        {
          "name": "",
          "type": "string"
        }
      ],
      "payable": false,
      "stateMutability": "view",
      "type": "function"
    },
    {
      "constant": true,
      "inputs": [],
      "name": "getViewd",
      "outputs": [
        {
          "name": "",
          "type": "uint256"
        }
      ],
      "payable": false,
      "stateMutability": "view",
      "type": "function"
    },
    {
      "constant": true,
      "inputs": [],
      "name": "getAllowedViewNumber",
      "outputs": [
        {
          "name": "",
          "type": "uint256"
        }
      ],
      "payable": false,
      "stateMutability": "view",
      "type": "function"
    }
  ],
  "bytecode": "0x608060405234801561001057600080fd5b5060405160208061085e83398101806040528101908080519060200190929190505050806000806101000a81548173ffffffffffffffffffffffffffffffffffffffff021916908373ffffffffffffffffffffffffffffffffffffffff160217905550506107db806100836000396000f30060806040526004361061006d576000357c0100000000000000000000000000000000000000000000000000000000900463ffffffff1680632b36e5d714610072578063c22cf13d1461009d578063d13319c4146100b4578063eefcf03714610144578063f5ab4dfc1461016f575b600080fd5b34801561007e57600080fd5b506100876101e2565b6040518082815260200191505060405180910390f35b3480156100a957600080fd5b506100b26102e0565b005b3480156100c057600080fd5b506100c96103f4565b6040518080602001828103825283818151815260200191508051906020019080838360005b838110156101095780820151818401526020810190506100ee565b50505050905090810190601f1680156101365780820380516001836020036101000a031916815260200191505b509250505060405180910390f35b34801561015057600080fd5b50610159610564565b6040518082815260200191505060405180910390f35b34801561017b57600080fd5b506101e0600480360381019080803590602001908201803590602001908080601f016020809104026020016040519081016040528093929190818152602001838380828437820191505050505050919291929080359060200190929190505050610662565b005b60008060009054906101000a900473ffffffffffffffffffffffffffffffffffffffff1673ffffffffffffffffffffffffffffffffffffffff16632d5a7327336040518263ffffffff167c0100000000000000000000000000000000000000000000000000000000028152600401808273ffffffffffffffffffffffffffffffffffffffff1673ffffffffffffffffffffffffffffffffffffffff168152602001915050602060405180830381600087803b1580156102a057600080fd5b505af11580156102b4573d6000803e3d6000fd5b505050506040513d60208110156102ca57600080fd5b8101908080519060200190929190505050905090565b6000809054906101000a900473ffffffffffffffffffffffffffffffffffffffff1673ffffffffffffffffffffffffffffffffffffffff166370cc40c2336040518263ffffffff167c0100000000000000000000000000000000000000000000000000000000028152600401808273ffffffffffffffffffffffffffffffffffffffff1673ffffffffffffffffffffffffffffffffffffffff168152602001915050600060405180830381600087803b15801561039c57600080fd5b505af11580156103b0573d6000803e3d6000fd5b505050507f1f539c631c40b55e3ee24c22c89479df886fc7cf245d7b9d35c995478bd867196103dd610564565b6040518082815260200191505060405180910390a1565b60606103fe6101e2565b610406610564565b10151561041257600080fd5b6000809054906101000a900473ffffffffffffffffffffffffffffffffffffffff1673ffffffffffffffffffffffffffffffffffffffff16631da0b8fc336040518263ffffffff167c0100000000000000000000000000000000000000000000000000000000028152600401808273ffffffffffffffffffffffffffffffffffffffff1673ffffffffffffffffffffffffffffffffffffffff168152602001915050600060405180830381600087803b1580156104ce57600080fd5b505af11580156104e2573d6000803e3d6000fd5b505050506040513d6000823e3d601f19601f82011682018060405250602081101561050c57600080fd5b81019080805164010000000081111561052457600080fd5b8281019050602081018481111561053a57600080fd5b815185600182028301116401000000008211171561055757600080fd5b5050929190505050905090565b60008060009054906101000a900473ffffffffffffffffffffffffffffffffffffffff1673ffffffffffffffffffffffffffffffffffffffff16639bff5a36336040518263ffffffff167c0100000000000000000000000000000000000000000000000000000000028152600401808273ffffffffffffffffffffffffffffffffffffffff1673ffffffffffffffffffffffffffffffffffffffff168152602001915050602060405180830381600087803b15801561062257600080fd5b505af1158015610636573d6000803e3d6000fd5b505050506040513d602081101561064c57600080fd5b8101908080519060200190929190505050905090565b6000809054906101000a900473ffffffffffffffffffffffffffffffffffffffff1673ffffffffffffffffffffffffffffffffffffffff16634097b2913384846040518463ffffffff167c0100000000000000000000000000000000000000000000000000000000028152600401808473ffffffffffffffffffffffffffffffffffffffff1673ffffffffffffffffffffffffffffffffffffffff16815260200180602001838152602001828103825284818151815260200191508051906020019080838360005b8381101561074557808201518184015260208101905061072a565b50505050905090810190601f1680156107725780820380516001836020036101000a031916815260200191505b50945050505050600060405180830381600087803b15801561079357600080fd5b505af11580156107a7573d6000803e3d6000fd5b5050505050505600a165627a7a72305820a2f8c97a9216f50eccefa70f8f35fcc38983d2b38b296030b8ef79a01f293fb00029",
  "source": "pragma solidity ^0.4.24;\r\n\r\nimport \"./ImageStorage.sol\";\r\n\r\ncontract ImageContract {\r\n    \r\n    event incrementViewd(uint viewd);    \r\n    ImageStorage imageStorage;\r\n    \r\n    constructor(address _imageStorageAddress) public {\r\n        imageStorage = ImageStorage(_imageStorageAddress);\r\n    }\r\n    \r\n    // setters\r\n    \r\n    function setHash(string _ipfsHash, uint _allowedViewNumber) public {\r\n        imageStorage.setHash(msg.sender, _ipfsHash, _allowedViewNumber);\r\n    }\r\n    \r\n    function setViewd() public {\r\n        imageStorage.setViewd(msg.sender);\r\n        emit incrementViewd(getViewd());\r\n    }\r\n    \r\n    \r\n    // getters\r\n    function getHash() public view returns (string) {\r\n        require(getViewd() < getAllowedViewNumber());\r\n        return imageStorage.getHash(msg.sender);\r\n    }\r\n    \r\n    function getViewd() public view returns (uint) {\r\n        return imageStorage.getViewd(msg.sender);\r\n    }\r\n    \r\n    function getAllowedViewNumber() public view returns (uint) {\r\n        return imageStorage.getAllowedViewNumber(msg.sender);\r\n    }\r\n    \r\n}",
  "sourcePath": "C:\\Users\\lucas\\Documents\\GitHub\\blockchain-challenge\\image-uploader\\contracts\\ImageContract.sol",
  "compiler": {
    "name": "solc",
    "version": "0.4.24+commit.e67f0147.Emscripten.clang"
  },
  "schemaVersion": "2.0.1",
  "updatedAt": "2018-11-10T17:02:19.697Z"
}